{
  "contractName": "NewReactZOM1",
  "abi": [
    {
      "inputs": [
        {
          "internalType": "string",
          "name": "_name",
          "type": "string"
        },
        {
          "internalType": "string",
          "name": "_symbol",
          "type": "string"
        },
        {
          "internalType": "string",
          "name": "_initBaseURI",
          "type": "string"
        }
      ],
      "stateMutability": "nonpayable",
      "type": "constructor"
    },
    {
      "anonymous": false,
      "inputs": [
        {
          "indexed": true,
          "internalType": "address",
          "name": "owner",
          "type": "address"
        },
        {
          "indexed": true,
          "internalType": "address",
          "name": "approved",
          "type": "address"
        },
        {
          "indexed": true,
          "internalType": "uint256",
          "name": "tokenId",
          "type": "uint256"
        }
      ],
      "name": "Approval",
      "type": "event"
    },
    {
      "anonymous": false,
      "inputs": [
        {
          "indexed": true,
          "internalType": "address",
          "name": "owner",
          "type": "address"
        },
        {
          "indexed": true,
          "internalType": "address",
          "name": "operator",
          "type": "address"
        },
        {
          "indexed": false,
          "internalType": "bool",
          "name": "approved",
          "type": "bool"
        }
      ],
      "name": "ApprovalForAll",
      "type": "event"
    },
    {
      "anonymous": false,
      "inputs": [
        {
          "indexed": true,
          "internalType": "address",
          "name": "previousOwner",
          "type": "address"
        },
        {
          "indexed": true,
          "internalType": "address",
          "name": "newOwner",
          "type": "address"
        }
      ],
      "name": "OwnershipTransferred",
      "type": "event"
    },
    {
      "anonymous": false,
      "inputs": [
        {
          "indexed": true,
          "internalType": "address",
          "name": "from",
          "type": "address"
        },
        {
          "indexed": true,
          "internalType": "address",
          "name": "to",
          "type": "address"
        },
        {
          "indexed": true,
          "internalType": "uint256",
          "name": "tokenId",
          "type": "uint256"
        }
      ],
      "name": "Transfer",
      "type": "event"
    },
    {
      "inputs": [
        {
          "internalType": "address",
          "name": "to",
          "type": "address"
        },
        {
          "internalType": "uint256",
          "name": "tokenId",
          "type": "uint256"
        }
      ],
      "name": "approve",
      "outputs": [],
      "stateMutability": "nonpayable",
      "type": "function"
    },
    {
      "inputs": [
        {
          "internalType": "address",
          "name": "owner",
          "type": "address"
        }
      ],
      "name": "balanceOf",
      "outputs": [
        {
          "internalType": "uint256",
          "name": "",
          "type": "uint256"
        }
      ],
      "stateMutability": "view",
      "type": "function"
    },
    {
      "inputs": [],
      "name": "baseExtension",
      "outputs": [
        {
          "internalType": "string",
          "name": "",
          "type": "string"
        }
      ],
      "stateMutability": "view",
      "type": "function"
    },
    {
      "inputs": [],
      "name": "baseURI",
      "outputs": [
        {
          "internalType": "string",
          "name": "",
          "type": "string"
        }
      ],
      "stateMutability": "view",
      "type": "function"
    },
    {
      "inputs": [],
      "name": "cost",
      "outputs": [
        {
          "internalType": "uint256",
          "name": "",
          "type": "uint256"
        }
      ],
      "stateMutability": "view",
      "type": "function"
    },
    {
      "inputs": [
        {
          "internalType": "uint256",
          "name": "tokenId",
          "type": "uint256"
        }
      ],
      "name": "getApproved",
      "outputs": [
        {
          "internalType": "address",
          "name": "",
          "type": "address"
        }
      ],
      "stateMutability": "view",
      "type": "function"
    },
    {
      "inputs": [
        {
          "internalType": "address",
          "name": "owner",
          "type": "address"
        },
        {
          "internalType": "address",
          "name": "operator",
          "type": "address"
        }
      ],
      "name": "isApprovedForAll",
      "outputs": [
        {
          "internalType": "bool",
          "name": "",
          "type": "bool"
        }
      ],
      "stateMutability": "view",
      "type": "function"
    },
    {
      "inputs": [],
      "name": "maxMintAmount",
      "outputs": [
        {
          "internalType": "uint256",
          "name": "",
          "type": "uint256"
        }
      ],
      "stateMutability": "view",
      "type": "function"
    },
    {
      "inputs": [],
      "name": "maxSupply",
      "outputs": [
        {
          "internalType": "uint256",
          "name": "",
          "type": "uint256"
        }
      ],
      "stateMutability": "view",
      "type": "function"
    },
    {
      "inputs": [],
      "name": "name",
      "outputs": [
        {
          "internalType": "string",
          "name": "",
          "type": "string"
        }
      ],
      "stateMutability": "view",
      "type": "function"
    },
    {
      "inputs": [],
      "name": "owner",
      "outputs": [
        {
          "internalType": "address",
          "name": "",
          "type": "address"
        }
      ],
      "stateMutability": "view",
      "type": "function"
    },
    {
      "inputs": [
        {
          "internalType": "uint256",
          "name": "tokenId",
          "type": "uint256"
        }
      ],
      "name": "ownerOf",
      "outputs": [
        {
          "internalType": "address",
          "name": "",
          "type": "address"
        }
      ],
      "stateMutability": "view",
      "type": "function"
    },
    {
      "inputs": [],
      "name": "paused",
      "outputs": [
        {
          "internalType": "bool",
          "name": "",
          "type": "bool"
        }
      ],
      "stateMutability": "view",
      "type": "function"
    },
    {
      "inputs": [],
      "name": "renounceOwnership",
      "outputs": [],
      "stateMutability": "nonpayable",
      "type": "function"
    },
    {
      "inputs": [
        {
          "internalType": "address",
          "name": "from",
          "type": "address"
        },
        {
          "internalType": "address",
          "name": "to",
          "type": "address"
        },
        {
          "internalType": "uint256",
          "name": "tokenId",
          "type": "uint256"
        }
      ],
      "name": "safeTransferFrom",
      "outputs": [],
      "stateMutability": "nonpayable",
      "type": "function"
    },
    {
      "inputs": [
        {
          "internalType": "address",
          "name": "from",
          "type": "address"
        },
        {
          "internalType": "address",
          "name": "to",
          "type": "address"
        },
        {
          "internalType": "uint256",
          "name": "tokenId",
          "type": "uint256"
        },
        {
          "internalType": "bytes",
          "name": "_data",
          "type": "bytes"
        }
      ],
      "name": "safeTransferFrom",
      "outputs": [],
      "stateMutability": "nonpayable",
      "type": "function"
    },
    {
      "inputs": [
        {
          "internalType": "address",
          "name": "operator",
          "type": "address"
        },
        {
          "internalType": "bool",
          "name": "approved",
          "type": "bool"
        }
      ],
      "name": "setApprovalForAll",
      "outputs": [],
      "stateMutability": "nonpayable",
      "type": "function"
    },
    {
      "inputs": [
        {
          "internalType": "bytes4",
          "name": "interfaceId",
          "type": "bytes4"
        }
      ],
      "name": "supportsInterface",
      "outputs": [
        {
          "internalType": "bool",
          "name": "",
          "type": "bool"
        }
      ],
      "stateMutability": "view",
      "type": "function"
    },
    {
      "inputs": [],
      "name": "symbol",
      "outputs": [
        {
          "internalType": "string",
          "name": "",
          "type": "string"
        }
      ],
      "stateMutability": "view",
      "type": "function"
    },
    {
      "inputs": [
        {
          "internalType": "uint256",
          "name": "index",
          "type": "uint256"
        }
      ],
      "name": "tokenByIndex",
      "outputs": [
        {
          "internalType": "uint256",
          "name": "",
          "type": "uint256"
        }
      ],
      "stateMutability": "view",
      "type": "function"
    },
    {
      "inputs": [
        {
          "internalType": "address",
          "name": "owner",
          "type": "address"
        },
        {
          "internalType": "uint256",
          "name": "index",
          "type": "uint256"
        }
      ],
      "name": "tokenOfOwnerByIndex",
      "outputs": [
        {
          "internalType": "uint256",
          "name": "",
          "type": "uint256"
        }
      ],
      "stateMutability": "view",
      "type": "function"
    },
    {
      "inputs": [],
      "name": "totalSupply",
      "outputs": [
        {
          "internalType": "uint256",
          "name": "",
          "type": "uint256"
        }
      ],
      "stateMutability": "view",
      "type": "function"
    },
    {
      "inputs": [
        {
          "internalType": "address",
          "name": "from",
          "type": "address"
        },
        {
          "internalType": "address",
          "name": "to",
          "type": "address"
        },
        {
          "internalType": "uint256",
          "name": "tokenId",
          "type": "uint256"
        }
      ],
      "name": "transferFrom",
      "outputs": [],
      "stateMutability": "nonpayable",
      "type": "function"
    },
    {
      "inputs": [
        {
          "internalType": "address",
          "name": "newOwner",
          "type": "address"
        }
      ],
      "name": "transferOwnership",
      "outputs": [],
      "stateMutability": "nonpayable",
      "type": "function"
    },
    {
      "inputs": [
        {
          "internalType": "address",
          "name": "",
          "type": "address"
        }
      ],
      "name": "whitelisted",
      "outputs": [
        {
          "internalType": "bool",
          "name": "",
          "type": "bool"
        }
      ],
      "stateMutability": "view",
      "type": "function"
    },
    {
      "inputs": [
        {
          "internalType": "address",
          "name": "_to",
          "type": "address"
        },
        {
          "internalType": "uint256",
          "name": "_mintAmount",
          "type": "uint256"
        }
      ],
      "name": "mint",
      "outputs": [],
      "stateMutability": "payable",
      "type": "function"
    },
    {
      "inputs": [
        {
          "internalType": "address",
          "name": "_owner",
          "type": "address"
        }
      ],
      "name": "walletOfOwner",
      "outputs": [
        {
          "internalType": "uint256[]",
          "name": "",
          "type": "uint256[]"
        }
      ],
      "stateMutability": "view",
      "type": "function"
    },
    {
      "inputs": [
        {
          "internalType": "uint256",
          "name": "tokenId",
          "type": "uint256"
        }
      ],
      "name": "tokenURI",
      "outputs": [
        {
          "internalType": "string",
          "name": "",
          "type": "string"
        }
      ],
      "stateMutability": "view",
      "type": "function"
    },
    {
      "inputs": [
        {
          "internalType": "uint256",
          "name": "_newCost",
          "type": "uint256"
        }
      ],
      "name": "setCost",
      "outputs": [],
      "stateMutability": "nonpayable",
      "type": "function"
    },
    {
      "inputs": [
        {
          "internalType": "uint256",
          "name": "_newmaxMintAmount",
          "type": "uint256"
        }
      ],
      "name": "setmaxMintAmount",
      "outputs": [],
      "stateMutability": "nonpayable",
      "type": "function"
    },
    {
      "inputs": [
        {
          "internalType": "string",
          "name": "_newBaseURI",
          "type": "string"
        }
      ],
      "name": "setBaseURI",
      "outputs": [],
      "stateMutability": "nonpayable",
      "type": "function"
    },
    {
      "inputs": [
        {
          "internalType": "string",
          "name": "_newBaseExtension",
          "type": "string"
        }
      ],
      "name": "setBaseExtension",
      "outputs": [],
      "stateMutability": "nonpayable",
      "type": "function"
    },
    {
      "inputs": [
        {
          "internalType": "bool",
          "name": "_state",
          "type": "bool"
        }
      ],
      "name": "pause",
      "outputs": [],
      "stateMutability": "nonpayable",
      "type": "function"
    },
    {
      "inputs": [
        {
          "internalType": "address",
          "name": "_user",
          "type": "address"
        }
      ],
      "name": "whitelistUser",
      "outputs": [],
      "stateMutability": "nonpayable",
      "type": "function"
    },
    {
      "inputs": [
        {
          "internalType": "address",
          "name": "_user",
          "type": "address"
        }
      ],
      "name": "removeWhitelistUser",
      "outputs": [],
      "stateMutability": "nonpayable",
      "type": "function"
    },
    {
      "inputs": [],
      "name": "withdraw",
      "outputs": [],
      "stateMutability": "payable",
      "type": "function"
    }
  ],
  "bytecode": "0x60c06040526005608081905264173539b7b760d91b60a09081526200002891600c91906200093a565b5068056bc75e2d63100000600d556103e8600e556014600f556010805460ff191690553480156200005857600080fd5b5060405162003086380380620030868339810160408190526200007b9162000aa0565b825183908390620000949060009060208501906200093a565b508051620000aa9060019060208401906200093a565b505050620000c7620000c1620000e860201b60201c565b620000ec565b620000d2816200013e565b620000df336014620001b7565b50505062000c90565b3390565b600a80546001600160a01b038381166001600160a01b0319831681179093556040519116919082907f8be0079c531659141344cd1fd0a4f28419497f9722a3daafe3b4186f6b6457e090600090a35050565b600a546001600160a01b031633146200019e5760405162461bcd60e51b815260206004820181905260248201527f4f776e61626c653a2063616c6c6572206973206e6f7420746865206f776e657260448201526064015b60405180910390fd5b8051620001b390600b9060208401906200093a565b5050565b6000620001c360085490565b60105490915060ff1615620001d757600080fd5b60008211620001e557600080fd5b600f54821115620001f557600080fd5b600e5462000204838362000b83565b11156200021057600080fd5b600a546001600160a01b031633146200025d573360009081526011602052604090205460ff1615156001146200025d5781600d5462000250919062000b9e565b3410156200025d57600080fd5b60015b82811162000294576200027f8462000279838562000b83565b6200029a565b806200028b8162000c46565b91505062000260565b50505050565b620001b3828260405180602001604052806000815250620002bc60201b60201c565b620002c8838362000334565b620002d760008484846200048a565b6200032f5760405162461bcd60e51b815260206004820152603260248201526000805160206200306683398151915260448201527131b2b4bb32b91034b6b83632b6b2b73a32b960711b606482015260840162000195565b505050565b6001600160a01b0382166200038c5760405162461bcd60e51b815260206004820181905260248201527f4552433732313a206d696e7420746f20746865207a65726f2061646472657373604482015260640162000195565b6000818152600260205260409020546001600160a01b031615620003f35760405162461bcd60e51b815260206004820152601c60248201527f4552433732313a20746f6b656e20616c7265616479206d696e74656400000000604482015260640162000195565b6200040160008383620005f3565b6001600160a01b03821660009081526003602052604081208054600192906200042c90849062000b83565b909155505060008181526002602052604080822080546001600160a01b0319166001600160a01b03861690811790915590518392907fddf252ad1be2c89b69c2b068fc378daa952ba7f163c4a11628f55a4df523b3ef908290a45050565b6000620004ab846001600160a01b0316620006cf60201b620011ac1760201c565b15620005e757604051630a85bd0160e11b81526001600160a01b0385169063150b7a0290620004e590339089908890889060040162000b2d565b602060405180830381600087803b1580156200050057600080fd5b505af192505050801562000533575060408051601f3d908101601f19168201909252620005309181019062000a6f565b60015b620005cc573d80801562000564576040519150601f19603f3d011682016040523d82523d6000602084013e62000569565b606091505b508051620005c45760405162461bcd60e51b815260206004820152603260248201526000805160206200306683398151915260448201527131b2b4bb32b91034b6b83632b6b2b73a32b960711b606482015260840162000195565b805181602001fd5b6001600160e01b031916630a85bd0160e11b149050620005eb565b5060015b949350505050565b6200060b8383836200032f60201b620009401760201c565b6001600160a01b03831662000669576200066381600880546000838152600960205260408120829055600182018355919091527ff3f7a9fe364faab93b216da50a3214154f22a0a2b415b23a84c8169e8b636ee30155565b6200068f565b816001600160a01b0316836001600160a01b0316146200068f576200068f8382620006d5565b6001600160a01b038216620006a9576200032f8162000782565b826001600160a01b0316826001600160a01b0316146200032f576200032f828262000860565b3b151590565b60006001620006ef84620008b160201b62000eb31760201c565b620006fb919062000bc0565b6000838152600760205260409020549091508082146200074f576001600160a01b03841660009081526006602090815260408083208584528252808320548484528184208190558352600790915290208190555b5060009182526007602090815260408084208490556001600160a01b039094168352600681528383209183525290812055565b600854600090620007969060019062000bc0565b60008381526009602052604081205460088054939450909284908110620007cd57634e487b7160e01b600052603260045260246000fd5b906000526020600020015490508060088381548110620007fd57634e487b7160e01b600052603260045260246000fd5b60009182526020808320909101929092558281526009909152604080822084905585825281205560088054806200084457634e487b7160e01b600052603160045260246000fd5b6001900381819060005260206000200160009055905550505050565b60006200087883620008b160201b62000eb31760201c565b6001600160a01b039093166000908152600660209081526040808320868452825280832085905593825260079052919091209190915550565b60006001600160a01b0382166200091e5760405162461bcd60e51b815260206004820152602a60248201527f4552433732313a2062616c616e636520717565727920666f7220746865207a65604482015269726f206164647265737360b01b606482015260840162000195565b506001600160a01b031660009081526003602052604090205490565b828054620009489062000c09565b90600052602060002090601f0160209004810192826200096c5760008555620009b7565b82601f106200098757805160ff1916838001178555620009b7565b82800160010185558215620009b7579182015b82811115620009b75782518255916020019190600101906200099a565b50620009c5929150620009c9565b5090565b5b80821115620009c55760008155600101620009ca565b600082601f830112620009f1578081fd5b81516001600160401b038082111562000a0e5762000a0e62000c7a565b604051601f8301601f19908116603f0116810190828211818310171562000a395762000a3962000c7a565b8160405283815286602085880101111562000a52578485fd5b62000a6584602083016020890162000bda565b9695505050505050565b60006020828403121562000a81578081fd5b81516001600160e01b03198116811462000a99578182fd5b9392505050565b60008060006060848603121562000ab5578182fd5b83516001600160401b038082111562000acc578384fd5b62000ada87838801620009e0565b9450602086015191508082111562000af0578384fd5b62000afe87838801620009e0565b9350604086015191508082111562000b14578283fd5b5062000b2386828701620009e0565b9150509250925092565b600060018060a01b03808716835280861660208401525083604083015260806060830152825180608084015262000b6c8160a085016020870162000bda565b601f01601f19169190910160a00195945050505050565b6000821982111562000b995762000b9962000c64565b500190565b600081600019048311821515161562000bbb5762000bbb62000c64565b500290565b60008282101562000bd55762000bd562000c64565b500390565b60005b8381101562000bf757818101518382015260200162000bdd565b83811115620002945750506000910152565b600181811c9082168062000c1e57607f821691505b6020821081141562000c4057634e487b7160e01b600052602260045260246000fd5b50919050565b600060001982141562000c5d5762000c5d62000c64565b5060010190565b634e487b7160e01b600052601160045260246000fd5b634e487b7160e01b600052604160045260246000fd5b6123c68062000ca06000396000f3fe60806040526004361061020f5760003560e01c806355f804b311610118578063a22cb465116100a0578063d5abeb011161006f578063d5abeb01146105c8578063d936547e146105de578063da3ef23f1461060e578063e985e9c51461062e578063f2fde38b1461067757600080fd5b8063a22cb46514610553578063b88d4fde14610573578063c668286214610593578063c87b56dd146105a857600080fd5b806370a08231116100e757806370a08231146104cb578063715018a6146104eb5780637f00c7a6146105005780638da5cb5b1461052057806395d89b411461053e57600080fd5b806355f804b31461045c5780635c975abb1461047c5780636352211e146104965780636c0360eb146104b657600080fd5b80632f745c591161019b57806342842e0e1161016a57806342842e0e146103af578063438b6300146103cf57806344a0d68a146103fc5780634a4c560d1461041c5780634f6ccce71461043c57600080fd5b80632f745c591461035457806330cc7ae0146103745780633ccfd60b1461039457806340c10f191461039c57600080fd5b8063095ea7b3116101e2578063095ea7b3146102c557806313faede6146102e557806318160ddd14610309578063239c70ae1461031e57806323b872dd1461033457600080fd5b806301ffc9a71461021457806302329a291461024957806306fdde031461026b578063081812fc1461028d575b600080fd5b34801561022057600080fd5b5061023461022f366004611f50565b610697565b60405190151581526020015b60405180910390f35b34801561025557600080fd5b50610269610264366004611f36565b6106c2565b005b34801561027757600080fd5b50610280610708565b6040516102409190612155565b34801561029957600080fd5b506102ad6102a8366004611fce565b61079a565b6040516001600160a01b039091168152602001610240565b3480156102d157600080fd5b506102696102e0366004611f0d565b61082f565b3480156102f157600080fd5b506102fb600d5481565b604051908152602001610240565b34801561031557600080fd5b506008546102fb565b34801561032a57600080fd5b506102fb600f5481565b34801561034057600080fd5b5061026961034f366004611e30565b610945565b34801561036057600080fd5b506102fb61036f366004611f0d565b610976565b34801561038057600080fd5b5061026961038f366004611de4565b610a0c565b610269610a57565b6102696103aa366004611f0d565b610aa7565b3480156103bb57600080fd5b506102696103ca366004611e30565b610b76565b3480156103db57600080fd5b506103ef6103ea366004611de4565b610b91565b6040516102409190612111565b34801561040857600080fd5b50610269610417366004611fce565b610c4f565b34801561042857600080fd5b50610269610437366004611de4565b610c7e565b34801561044857600080fd5b506102fb610457366004611fce565b610ccc565b34801561046857600080fd5b50610269610477366004611f88565b610d6d565b34801561048857600080fd5b506010546102349060ff1681565b3480156104a257600080fd5b506102ad6104b1366004611fce565b610dae565b3480156104c257600080fd5b50610280610e25565b3480156104d757600080fd5b506102fb6104e6366004611de4565b610eb3565b3480156104f757600080fd5b50610269610f3a565b34801561050c57600080fd5b5061026961051b366004611fce565b610f6e565b34801561052c57600080fd5b50600a546001600160a01b03166102ad565b34801561054a57600080fd5b50610280610f9d565b34801561055f57600080fd5b5061026961056e366004611ee4565b610fac565b34801561057f57600080fd5b5061026961058e366004611e6b565b610fb7565b34801561059f57600080fd5b50610280610fe9565b3480156105b457600080fd5b506102806105c3366004611fce565b610ff6565b3480156105d457600080fd5b506102fb600e5481565b3480156105ea57600080fd5b506102346105f9366004611de4565b60116020526000908152604090205460ff1681565b34801561061a57600080fd5b50610269610629366004611f88565b6110d4565b34801561063a57600080fd5b50610234610649366004611dfe565b6001600160a01b03918216600090815260056020908152604080832093909416825291909152205460ff1690565b34801561068357600080fd5b50610269610692366004611de4565b611111565b60006001600160e01b0319821663780e9d6360e01b14806106bc57506106bc826111b2565b92915050565b600a546001600160a01b031633146106f55760405162461bcd60e51b81526004016106ec906121ba565b60405180910390fd5b6010805460ff1916911515919091179055565b606060008054610717906122ce565b80601f0160208091040260200160405190810160405280929190818152602001828054610743906122ce565b80156107905780601f1061076557610100808354040283529160200191610790565b820191906000526020600020905b81548152906001019060200180831161077357829003601f168201915b5050505050905090565b6000818152600260205260408120546001600160a01b03166108135760405162461bcd60e51b815260206004820152602c60248201527f4552433732313a20617070726f76656420717565727920666f72206e6f6e657860448201526b34b9ba32b73a103a37b5b2b760a11b60648201526084016106ec565b506000908152600460205260409020546001600160a01b031690565b600061083a82610dae565b9050806001600160a01b0316836001600160a01b031614156108a85760405162461bcd60e51b815260206004820152602160248201527f4552433732313a20617070726f76616c20746f2063757272656e74206f776e656044820152603960f91b60648201526084016106ec565b336001600160a01b03821614806108c457506108c48133610649565b6109365760405162461bcd60e51b815260206004820152603860248201527f4552433732313a20617070726f76652063616c6c6572206973206e6f74206f7760448201527f6e6572206e6f7220617070726f76656420666f7220616c6c000000000000000060648201526084016106ec565b6109408383611202565b505050565b61094f3382611270565b61096b5760405162461bcd60e51b81526004016106ec906121ef565b610940838383611367565b600061098183610eb3565b82106109e35760405162461bcd60e51b815260206004820152602b60248201527f455243373231456e756d657261626c653a206f776e657220696e646578206f7560448201526a74206f6620626f756e647360a81b60648201526084016106ec565b506001600160a01b03919091166000908152600660209081526040808320938352929052205490565b600a546001600160a01b03163314610a365760405162461bcd60e51b81526004016106ec906121ba565b6001600160a01b03166000908152601160205260409020805460ff19169055565b600a546001600160a01b03163314610a815760405162461bcd60e51b81526004016106ec906121ba565b60405133904780156108fc02916000818181858888f19350505050610aa557600080fd5b565b6000610ab260085490565b60105490915060ff1615610ac557600080fd5b60008211610ad257600080fd5b600f54821115610ae157600080fd5b600e54610aee8383612240565b1115610af957600080fd5b600a546001600160a01b03163314610b41573360009081526011602052604090205460ff161515600114610b415781600d54610b35919061226c565b341015610b4157600080fd5b60015b828111610b7057610b5e84610b598385612240565b611512565b80610b6881612309565b915050610b44565b50505050565b61094083838360405180602001604052806000815250610fb7565b60606000610b9e83610eb3565b905060008167ffffffffffffffff811115610bc957634e487b7160e01b600052604160045260246000fd5b604051908082528060200260200182016040528015610bf2578160200160208202803683370190505b50905060005b82811015610c4757610c0a8582610976565b828281518110610c2a57634e487b7160e01b600052603260045260246000fd5b602090810291909101015280610c3f81612309565b915050610bf8565b509392505050565b600a546001600160a01b03163314610c795760405162461bcd60e51b81526004016106ec906121ba565b600d55565b600a546001600160a01b03163314610ca85760405162461bcd60e51b81526004016106ec906121ba565b6001600160a01b03166000908152601160205260409020805460ff19166001179055565b6000610cd760085490565b8210610d3a5760405162461bcd60e51b815260206004820152602c60248201527f455243373231456e756d657261626c653a20676c6f62616c20696e646578206f60448201526b7574206f6620626f756e647360a01b60648201526084016106ec565b60088281548110610d5b57634e487b7160e01b600052603260045260246000fd5b90600052602060002001549050919050565b600a546001600160a01b03163314610d975760405162461bcd60e51b81526004016106ec906121ba565b8051610daa90600b906020840190611ca9565b5050565b6000818152600260205260408120546001600160a01b0316806106bc5760405162461bcd60e51b815260206004820152602960248201527f4552433732313a206f776e657220717565727920666f72206e6f6e657869737460448201526832b73a103a37b5b2b760b91b60648201526084016106ec565b600b8054610e32906122ce565b80601f0160208091040260200160405190810160405280929190818152602001828054610e5e906122ce565b8015610eab5780601f10610e8057610100808354040283529160200191610eab565b820191906000526020600020905b815481529060010190602001808311610e8e57829003601f168201915b505050505081565b60006001600160a01b038216610f1e5760405162461bcd60e51b815260206004820152602a60248201527f4552433732313a2062616c616e636520717565727920666f7220746865207a65604482015269726f206164647265737360b01b60648201526084016106ec565b506001600160a01b031660009081526003602052604090205490565b600a546001600160a01b03163314610f645760405162461bcd60e51b81526004016106ec906121ba565b610aa5600061152c565b600a546001600160a01b03163314610f985760405162461bcd60e51b81526004016106ec906121ba565b600f55565b606060018054610717906122ce565b610daa33838361157e565b610fc13383611270565b610fdd5760405162461bcd60e51b81526004016106ec906121ef565b610b708484848461164d565b600c8054610e32906122ce565b6000818152600260205260409020546060906001600160a01b03166110755760405162461bcd60e51b815260206004820152602f60248201527f4552433732314d657461646174613a2055524920717565727920666f72206e6f60448201526e3732bc34b9ba32b73a103a37b5b2b760891b60648201526084016106ec565b600061107f611680565b9050600081511161109f57604051806020016040528060008152506110cd565b806110a98461168f565b600c6040516020016110bd93929190612012565b6040516020818303038152906040525b9392505050565b600a546001600160a01b031633146110fe5760405162461bcd60e51b81526004016106ec906121ba565b8051610daa90600c906020840190611ca9565b600a546001600160a01b0316331461113b5760405162461bcd60e51b81526004016106ec906121ba565b6001600160a01b0381166111a05760405162461bcd60e51b815260206004820152602660248201527f4f776e61626c653a206e6577206f776e657220697320746865207a65726f206160448201526564647265737360d01b60648201526084016106ec565b6111a98161152c565b50565b3b151590565b60006001600160e01b031982166380ac58cd60e01b14806111e357506001600160e01b03198216635b5e139f60e01b145b806106bc57506301ffc9a760e01b6001600160e01b03198316146106bc565b600081815260046020526040902080546001600160a01b0319166001600160a01b038416908117909155819061123782610dae565b6001600160a01b03167f8c5be1e5ebec7d5bd14f71427d1e84f3dd0314c0f7b2291e5b200ac8c7c3b92560405160405180910390a45050565b6000818152600260205260408120546001600160a01b03166112e95760405162461bcd60e51b815260206004820152602c60248201527f4552433732313a206f70657261746f7220717565727920666f72206e6f6e657860448201526b34b9ba32b73a103a37b5b2b760a11b60648201526084016106ec565b60006112f483610dae565b9050806001600160a01b0316846001600160a01b0316148061132f5750836001600160a01b03166113248461079a565b6001600160a01b0316145b8061135f57506001600160a01b0380821660009081526005602090815260408083209388168352929052205460ff165b949350505050565b826001600160a01b031661137a82610dae565b6001600160a01b0316146113e25760405162461bcd60e51b815260206004820152602960248201527f4552433732313a207472616e73666572206f6620746f6b656e2074686174206960448201526839903737ba1037bbb760b91b60648201526084016106ec565b6001600160a01b0382166114445760405162461bcd60e51b8152602060048201526024808201527f4552433732313a207472616e7366657220746f20746865207a65726f206164646044820152637265737360e01b60648201526084016106ec565b61144f8383836117a9565b61145a600082611202565b6001600160a01b038316600090815260036020526040812080546001929061148390849061228b565b90915550506001600160a01b03821660009081526003602052604081208054600192906114b1908490612240565b909155505060008181526002602052604080822080546001600160a01b0319166001600160a01b0386811691821790925591518493918716917fddf252ad1be2c89b69c2b068fc378daa952ba7f163c4a11628f55a4df523b3ef91a4505050565b610daa828260405180602001604052806000815250611861565b600a80546001600160a01b038381166001600160a01b0319831681179093556040519116919082907f8be0079c531659141344cd1fd0a4f28419497f9722a3daafe3b4186f6b6457e090600090a35050565b816001600160a01b0316836001600160a01b031614156115e05760405162461bcd60e51b815260206004820152601960248201527f4552433732313a20617070726f766520746f2063616c6c65720000000000000060448201526064016106ec565b6001600160a01b03838116600081815260056020908152604080832094871680845294825291829020805460ff191686151590811790915591519182527f17307eab39ab6107e8899845ad3d59bd9653f200f220920489ca2b5937696c31910160405180910390a3505050565b611658848484611367565b61166484848484611894565b610b705760405162461bcd60e51b81526004016106ec90612168565b6060600b8054610717906122ce565b6060816116b35750506040805180820190915260018152600360fc1b602082015290565b8160005b81156116dd57806116c781612309565b91506116d69050600a83612258565b91506116b7565b60008167ffffffffffffffff81111561170657634e487b7160e01b600052604160045260246000fd5b6040519080825280601f01601f191660200182016040528015611730576020820181803683370190505b5090505b841561135f5761174560018361228b565b9150611752600a86612324565b61175d906030612240565b60f81b81838151811061178057634e487b7160e01b600052603260045260246000fd5b60200101906001600160f81b031916908160001a9053506117a2600a86612258565b9450611734565b6001600160a01b038316611804576117ff81600880546000838152600960205260408120829055600182018355919091527ff3f7a9fe364faab93b216da50a3214154f22a0a2b415b23a84c8169e8b636ee30155565b611827565b816001600160a01b0316836001600160a01b0316146118275761182783826119a1565b6001600160a01b03821661183e5761094081611a3e565b826001600160a01b0316826001600160a01b031614610940576109408282611b17565b61186b8383611b5b565b6118786000848484611894565b6109405760405162461bcd60e51b81526004016106ec90612168565b60006001600160a01b0384163b1561199657604051630a85bd0160e11b81526001600160a01b0385169063150b7a02906118d89033908990889088906004016120d4565b602060405180830381600087803b1580156118f257600080fd5b505af1925050508015611922575060408051601f3d908101601f1916820190925261191f91810190611f6c565b60015b61197c573d808015611950576040519150601f19603f3d011682016040523d82523d6000602084013e611955565b606091505b5080516119745760405162461bcd60e51b81526004016106ec90612168565b805181602001fd5b6001600160e01b031916630a85bd0160e11b14905061135f565b506001949350505050565b600060016119ae84610eb3565b6119b8919061228b565b600083815260076020526040902054909150808214611a0b576001600160a01b03841660009081526006602090815260408083208584528252808320548484528184208190558352600790915290208190555b5060009182526007602090815260408084208490556001600160a01b039094168352600681528383209183525290812055565b600854600090611a509060019061228b565b60008381526009602052604081205460088054939450909284908110611a8657634e487b7160e01b600052603260045260246000fd5b906000526020600020015490508060088381548110611ab557634e487b7160e01b600052603260045260246000fd5b6000918252602080832090910192909255828152600990915260408082208490558582528120556008805480611afb57634e487b7160e01b600052603160045260246000fd5b6001900381819060005260206000200160009055905550505050565b6000611b2283610eb3565b6001600160a01b039093166000908152600660209081526040808320868452825280832085905593825260079052919091209190915550565b6001600160a01b038216611bb15760405162461bcd60e51b815260206004820181905260248201527f4552433732313a206d696e7420746f20746865207a65726f206164647265737360448201526064016106ec565b6000818152600260205260409020546001600160a01b031615611c165760405162461bcd60e51b815260206004820152601c60248201527f4552433732313a20746f6b656e20616c7265616479206d696e7465640000000060448201526064016106ec565b611c22600083836117a9565b6001600160a01b0382166000908152600360205260408120805460019290611c4b908490612240565b909155505060008181526002602052604080822080546001600160a01b0319166001600160a01b03861690811790915590518392907fddf252ad1be2c89b69c2b068fc378daa952ba7f163c4a11628f55a4df523b3ef908290a45050565b828054611cb5906122ce565b90600052602060002090601f016020900481019282611cd75760008555611d1d565b82601f10611cf057805160ff1916838001178555611d1d565b82800160010185558215611d1d579182015b82811115611d1d578251825591602001919060010190611d02565b50611d29929150611d2d565b5090565b5b80821115611d295760008155600101611d2e565b600067ffffffffffffffff80841115611d5d57611d5d612364565b604051601f8501601f19908116603f01168101908282118183101715611d8557611d85612364565b81604052809350858152868686011115611d9e57600080fd5b858560208301376000602087830101525050509392505050565b80356001600160a01b0381168114611dcf57600080fd5b919050565b80358015158114611dcf57600080fd5b600060208284031215611df5578081fd5b6110cd82611db8565b60008060408385031215611e10578081fd5b611e1983611db8565b9150611e2760208401611db8565b90509250929050565b600080600060608486031215611e44578081fd5b611e4d84611db8565b9250611e5b60208501611db8565b9150604084013590509250925092565b60008060008060808587031215611e80578081fd5b611e8985611db8565b9350611e9760208601611db8565b925060408501359150606085013567ffffffffffffffff811115611eb9578182fd5b8501601f81018713611ec9578182fd5b611ed887823560208401611d42565b91505092959194509250565b60008060408385031215611ef6578182fd5b611eff83611db8565b9150611e2760208401611dd4565b60008060408385031215611f1f578182fd5b611f2883611db8565b946020939093013593505050565b600060208284031215611f47578081fd5b6110cd82611dd4565b600060208284031215611f61578081fd5b81356110cd8161237a565b600060208284031215611f7d578081fd5b81516110cd8161237a565b600060208284031215611f99578081fd5b813567ffffffffffffffff811115611faf578182fd5b8201601f81018413611fbf578182fd5b61135f84823560208401611d42565b600060208284031215611fdf578081fd5b5035919050565b60008151808452611ffe8160208601602086016122a2565b601f01601f19169290920160200192915050565b6000845160206120258285838a016122a2565b8551918401916120388184848a016122a2565b85549201918390600181811c908083168061205457607f831692505b85831081141561207257634e487b7160e01b88526022600452602488fd5b8080156120865760018114612097576120c3565b60ff198516885283880195506120c3565b60008b815260209020895b858110156120bb5781548a8201529084019088016120a2565b505083880195505b50939b9a5050505050505050505050565b6001600160a01b038581168252841660208201526040810183905260806060820181905260009061210790830184611fe6565b9695505050505050565b6020808252825182820181905260009190848201906040850190845b818110156121495783518352928401929184019160010161212d565b50909695505050505050565b6020815260006110cd6020830184611fe6565b60208082526032908201527f4552433732313a207472616e7366657220746f206e6f6e20455243373231526560408201527131b2b4bb32b91034b6b83632b6b2b73a32b960711b606082015260800190565b6020808252818101527f4f776e61626c653a2063616c6c6572206973206e6f7420746865206f776e6572604082015260600190565b60208082526031908201527f4552433732313a207472616e736665722063616c6c6572206973206e6f74206f6040820152701ddb995c881b9bdc88185c1c1c9bdd9959607a1b606082015260800190565b6000821982111561225357612253612338565b500190565b6000826122675761226761234e565b500490565b600081600019048311821515161561228657612286612338565b500290565b60008282101561229d5761229d612338565b500390565b60005b838110156122bd5781810151838201526020016122a5565b83811115610b705750506000910152565b600181811c908216806122e257607f821691505b6020821081141561230357634e487b7160e01b600052602260045260246000fd5b50919050565b600060001982141561231d5761231d612338565b5060010190565b6000826123335761233361234e565b500690565b634e487b7160e01b600052601160045260246000fd5b634e487b7160e01b600052601260045260246000fd5b634e487b7160e01b600052604160045260246000fd5b6001600160e01b0319811681146111a957600080fdfea26469706673582212207a37c8ac61e96fcb10eefb83888aa709f9d3165e2093bc3f8bab9351a886542964736f6c634300080400334552433732313a207472616e7366657220746f206e6f6e204552433732315265",
  "immutableReferences": {},
  "source": "// SPDX-License-Identifier: GPL-3.0\n\n// Created by HashLips\n// The Nerdy Coder Clones\n\npragma solidity ^0.8.0;\n\nimport \"@openzeppelin/contracts/token/ERC721/extensions/ERC721Enumerable.sol\";\nimport \"@openzeppelin/contracts/access/Ownable.sol\";\n\ncontract NewReactZOM1 is ERC721Enumerable, Ownable {\n  using Strings for uint256;\n\n  string public baseURI;\n  string public baseExtension = \".json\";\n  uint256 public cost = 100 ether;\n  uint256 public maxSupply = 1000;\n  uint256 public maxMintAmount = 20;\n  bool public paused = false;\n  mapping(address => bool) public whitelisted;\n\n  constructor(\n    string memory _name,\n    string memory _symbol,\n    string memory _initBaseURI\n  ) ERC721(_name, _symbol) {\n    setBaseURI(_initBaseURI);\n    mint(msg.sender, 20);\n  }\n\n  // internal\n  function _baseURI() internal view virtual override returns (string memory) {\n    return baseURI;\n  }\n\n  // public\n  function mint(address _to, uint256 _mintAmount) public payable {\n    uint256 supply = totalSupply();\n    require(!paused);\n    require(_mintAmount > 0);\n    require(_mintAmount <= maxMintAmount);\n    require(supply + _mintAmount <= maxSupply);\n\n    if (msg.sender != owner()) {\n        if(whitelisted[msg.sender] != true) {\n          require(msg.value >= cost * _mintAmount);\n        }\n    }\n\n    for (uint256 i = 1; i <= _mintAmount; i++) {\n      _safeMint(_to, supply + i);\n    }\n  }\n\n  function walletOfOwner(address _owner)\n    public\n    view\n    returns (uint256[] memory)\n  {\n    uint256 ownerTokenCount = balanceOf(_owner);\n    uint256[] memory tokenIds = new uint256[](ownerTokenCount);\n    for (uint256 i; i < ownerTokenCount; i++) {\n      tokenIds[i] = tokenOfOwnerByIndex(_owner, i);\n    }\n    return tokenIds;\n  }\n\n  function tokenURI(uint256 tokenId)\n    public\n    view\n    virtual\n    override\n    returns (string memory)\n  {\n    require(\n      _exists(tokenId),\n      \"ERC721Metadata: URI query for nonexistent token\"\n    );\n\n    string memory currentBaseURI = _baseURI();\n    return bytes(currentBaseURI).length > 0\n        ? string(abi.encodePacked(currentBaseURI, tokenId.toString(), baseExtension))\n        : \"\";\n  }\n\n  //only owner\n  function setCost(uint256 _newCost) public onlyOwner {\n    cost = _newCost;\n  }\n\n  function setmaxMintAmount(uint256 _newmaxMintAmount) public onlyOwner {\n    maxMintAmount = _newmaxMintAmount;\n  }\n\n  function setBaseURI(string memory _newBaseURI) public onlyOwner {\n    baseURI = _newBaseURI;\n  }\n\n  function setBaseExtension(string memory _newBaseExtension) public onlyOwner {\n    baseExtension = _newBaseExtension;\n  }\n\n  function pause(bool _state) public onlyOwner {\n    paused = _state;\n  }\n \n function whitelistUser(address _user) public onlyOwner {\n    whitelisted[_user] = true;\n  }\n \n  function removeWhitelistUser(address _user) public onlyOwner {\n    whitelisted[_user] = false;\n  }\n\n  function withdraw() public payable onlyOwner {\n    require(payable(msg.sender).send(address(this).balance));\n  }\n}\n",
  "sourcePath": "D:\\AstralisFiles\\NFT\\example_nft_minter\\contracts\\SmartContract.sol",
  "compiler": {
    "name": "solc",
    "version": "0.8.4+commit.c7e474f2.Emscripten.clang"
  },
  "schemaVersion": "3.4.3",
  "updatedAt": "2021-11-29T12:59:41.816Z",
  "devdoc": {
    "kind": "dev",
    "methods": {
      "approve(address,uint256)": {
        "details": "See {IERC721-approve}."
      },
      "balanceOf(address)": {
        "details": "See {IERC721-balanceOf}."
      },
      "getApproved(uint256)": {
        "details": "See {IERC721-getApproved}."
      },
      "isApprovedForAll(address,address)": {
        "details": "See {IERC721-isApprovedForAll}."
      },
      "name()": {
        "details": "See {IERC721Metadata-name}."
      },
      "owner()": {
        "details": "Returns the address of the current owner."
      },
      "ownerOf(uint256)": {
        "details": "See {IERC721-ownerOf}."
      },
      "renounceOwnership()": {
        "details": "Leaves the contract without owner. It will not be possible to call `onlyOwner` functions anymore. Can only be called by the current owner. NOTE: Renouncing ownership will leave the contract without an owner, thereby removing any functionality that is only available to the owner."
      },
      "safeTransferFrom(address,address,uint256)": {
        "details": "See {IERC721-safeTransferFrom}."
      },
      "safeTransferFrom(address,address,uint256,bytes)": {
        "details": "See {IERC721-safeTransferFrom}."
      },
      "setApprovalForAll(address,bool)": {
        "details": "See {IERC721-setApprovalForAll}."
      },
      "supportsInterface(bytes4)": {
        "details": "See {IERC165-supportsInterface}."
      },
      "symbol()": {
        "details": "See {IERC721Metadata-symbol}."
      },
      "tokenByIndex(uint256)": {
        "details": "See {IERC721Enumerable-tokenByIndex}."
      },
      "tokenOfOwnerByIndex(address,uint256)": {
        "details": "See {IERC721Enumerable-tokenOfOwnerByIndex}."
      },
      "tokenURI(uint256)": {
        "details": "See {IERC721Metadata-tokenURI}."
      },
      "totalSupply()": {
        "details": "See {IERC721Enumerable-totalSupply}."
      },
      "transferFrom(address,address,uint256)": {
        "details": "See {IERC721-transferFrom}."
      },
      "transferOwnership(address)": {
        "details": "Transfers ownership of the contract to a new account (`newOwner`). Can only be called by the current owner."
      }
    },
    "version": 1
  },
  "userdoc": {
    "kind": "user",
    "methods": {},
    "version": 1
  }
}